:100000000C943E000C94F3000C9450000C9450009F
:100010000C9450000C9450000C9450000C94500020
:100020000C9450000C9450000C9450000C94500010
:100030000C9450000C9407010C9450000C94500048
:100040000C9450000C9450000C9450000C945000F0
:100050000C9450000C9450000C9450000C945000E0
:100060000C9450000C9450000C9450000C945000D0
:100070000C9450000C9450000C94500011241FBE9E
:10008000CFEFD8E0DEBFCDBF21E0A0E0B1E001C0FE
:100090001D92A230B207E1F70E942D020C94FC02DF
:1000A0000C94000081B181B981B181B981B181B96C
:1000B00081B181B981B181B981B181B981B181B990
:1000C00081B181B984B184B984B184B984B184B96E
:1000D00084B184B984B184B984B184B984B184B958
:1000E00084B184B987B187B987B187B987B187B936
:1000F00087B187B93B9A87B187B9399A87B187B9F0
:100100008AB18AB98AB18AB98AB18AB98AB18AB9F7
:100110008AB18AB98AB18AB98AB18AB98AB18AB9E7
:1001200008958DB38DBB8DB38DBBE89AE9E6F0E001
:100130008081808380818083808181608083089535
:10014000CF93DF93A0E8B0E08C918C938C918C934B
:10015000E1E8F0E080818083808180838081856018
:100160008083C2E8D0E01882188280818860808312
:100170008C918C93EFE6F0E0808180838081808396
:1001800080818260808380818083DF91CF91089518
:10019000F8940E9452000E94A000109201010E9457
:1001A000910078940895CF93DF939B01AC01C1E84F
:1001B000D0E0888188831092850010928400A4E8A2
:1001C000BEE10E94E20228EE33E040E050E00E94EF
:1001D000C0023093890020938800888185608883DD
:1001E000DF91CF9108951F920F920FB60F921124B5
:1001F0008F934A9B08C0109201018F910F900FBE00
:100200000F901F90189581E080930101F6CF1F9207
:100210000F920FB60F9211248F9381E0809300010B
:100220008F910F900FBE0F901F901895FC01618366
:10023000428323830895FC016130D9F018F06230C5
:1002400079F1089542B1818121E030E0B90102C025
:10025000660F771F8A95E2F7CB018095842382B9D8
:1002600082B1928101C0220F9A95EAF72095282346
:1002700015C042B1818121E030E0B90102C0660FB2
:10028000771F8A95E2F7CB018095842382B982B1EA
:10029000928101C0220F9A95EAF7282B22B908957E
:1002A00082B1918121E030E0A90101C0440F9A950B
:1002B000EAF7842BD4CFFC016130D9F018F062301A
:1002C00079F1089545B1818121E030E0B90102C0A2
:1002D000660F771F8A95E2F7CB018095842385B955
:1002E00085B1928101C0220F9A95EAF720952823C3
:1002F00015C045B1818121E030E0B90102C0660F2F
:10030000771F8A95E2F7CB018095842385B985B163
:10031000928101C0220F9A95EAF7282B25B90895FA
:1003200085B1918121E030E0A90101C0440F9A9587
:10033000EAF7842BD4CFFC016130D9F018F0623099
:1003400079F1089548B1818121E030E0B90102C01E
:10035000660F771F8A95E2F7CB018095842388B9D1
:1003600088B1928101C0220F9A95EAF7209528233F
:1003700015C048B1818121E030E0B90102C0660FAB
:10038000771F8A95E2F7CB018095842388B988B1DD
:10039000928101C0220F9A95EAF7282B28B9089577
:1003A00088B1918121E030E0A90101C0440F9A9504
:1003B000EAF7842BD4CFFC016130D9F018F0623019
:1003C00079F108954BB1818121E030E0B90102C09B
:1003D000660F771F8A95E2F7CB01809584238BB94E
:1003E0008BB1928101C0220F9A95EAF720952823BC
:1003F00015C04BB1818121E030E0B90102C0660F28
:10040000771F8A95E2F7CB01809584238BB98BB156
:10041000928101C0220F9A95EAF7282B2BB90895F3
:100420008BB1918121E030E0A90101C0440F9A9580
:10043000EAF7842BD4CFFC012381213041F028F04E
:10044000223039F0233039F008950C941B010C94BC
:100450005B010C949B010C94DB01CF93DF9300D0E4
:1004600000D0CDB7DEB70E94C80022E043E061E0D3
:10047000CE0101960E941601809101018823E1F3CB
:1004800064E670E080E090E00E94D30000E0202F5E
:1004900030E080910101882321F0283731050CF4E8
:1004A00066C061E0CE0101960E941B0264EF71E01C
:1004B00080E090E00E94D300109200018091000142
:1004C0008823E1F360E0CE0101960E941B0260EDFB
:1004D00077E080E090E00E94D300109200018091CC
:1004E00000018823E1F310E015950795F12C8F2D7D
:1004F00090E08017910724F562E0CE0101960E94FA
:100500001B026AEF70E080E090E00E94D30010923E
:100510000001809100018823E1F360E0CE010196A3
:100520000E941B026AEF70E080E090E00E94D3001E
:1005300010920001809100018823E1F3F394D7CF5A
:1005400061E0CE0101960E941B0268EE73E080E03C
:1005500090E00E94D3001092000180910001882356
:10056000E1F360E0CE0101960E941B0285CF8091ED
:100570000001882309F48DCF0F5F1092000187CF0F
:10058000A1E21A2EAA1BBB1BFD010DC0AA1FBB1F97
:10059000EE1FFF1FA217B307E407F50720F0A21B09
:1005A000B30BE40BF50B661F771F881F991F1A9476
:1005B00069F760957095809590959B01AC01BD01A0
:1005C000CF0108950E94ED02A59F900DB49F900D5C
:1005D000A49F800D911D11240895A29FB001B39F87
:1005E000C001A39F700D811D1124911DB29F700D3C
:0C05F000811D1124911D0895F894FFCF87
:00000001FF
