:100000000C943E000C9448000C9448000C9448005A
:100010000C9448000C9448000C9448000C94480040
:100020000C9448000C9448000C9448000C94480030
:100030000C9448000C9448000C9448000C94480020
:100040000C9448000C9448000C9448000C94480010
:100050000C9448000C9448000C9448000C94480000
:100060000C9448000C9448000C9448000C944800F0
:100070000C9448000C9448000C94480011241FBEB6
:10008000CFEFD8E0DEBFCDBF0E944A000C946400E1
:100090000C9400008FEF87B91AB88FE19EE40197A6
:1000A000F1F700C0000080E090E04A9B09C0019693
:1000B0009C0144E0369527954A95E1F728B9F5CF9C
:0C00C0004A99EBCF18B8E9CFF894FFCFB5
:00000001FF
