:100000000C943E000C9448000C9448000C9448005A
:100010000C9448000C9448000C9448000C94480040
:100020000C9448000C9448000C9448000C94480030
:100030000C9448000C9448000C9448000C94480020
:100040000C9448000C9448000C9448000C94480010
:100050000C9448000C9448000C9448000C94480000
:100060000C9448000C9448000C9448000C944800F0
:100070000C9448000C9448000C94480011241FBEB6
:10008000CFEFD8E0DEBFCDBF0E944A000C946C00D9
:100090000C9400008FEF81B91AB822E031E04A9B3E
:1000A00013C082E390E022B9E7ECF0E03197F1F77A
:1000B00000C0000032B9E7ECF0E03197F1F700C082
:1000C0000000019781F7EBCF12B88FE19EE4019712
:0C00D000F1F700C00000E3CFF894FFCF70
:00000001FF
